S01700004763634170706C69636174696F6E342E7372656358
S113000012C02CC02BC02AC029C028C027C026C0BB
S113001025C024C023C022C021C020C01FC01EC0D0
S11300201DC01CC01BC011241FBECFE5D4E0DEBF21
S1130030CDBF10E0A0E6B0E0E6E9F0E002C0059034
S11300400D92A036B107D9F710E0A0E6B0E001C0E8
S11300501D92A036B107E1F702D01BC0D1CF8FEFBC
S113006081BB80EF87BB34E025E091E086B38370E9
S1130070813049F0813028F0823039F08330B1F793
S113008006C012BAF3CF92BBF1CF32BBEFCF22BB83
S1090090EDCFF894FFCF50
S9030000FC
